{
  "_format": "hh-sol-artifact-1",
  "contractName": "TaskContract",
  "sourceName": "contracts/TaskContract.sol",
  "abi": [
    {
      "anonymous": false,
      "inputs": [
        {
          "indexed": true,
          "internalType": "address",
          "name": "assignedTo",
          "type": "address"
        },
        {
          "indexed": false,
          "internalType": "string",
          "name": "description",
          "type": "string"
        },
        {
          "indexed": false,
          "internalType": "address",
          "name": "creator",
          "type": "address"
        },
        {
          "indexed": false,
          "internalType": "uint256",
          "name": "date",
          "type": "uint256"
        }
      ],
      "name": "TaskCreated",
      "type": "event"
    },
    {
      "anonymous": false,
      "inputs": [
        {
          "indexed": true,
          "internalType": "address",
          "name": "assignedTo",
          "type": "address"
        },
        {
          "indexed": false,
          "internalType": "uint256",
          "name": "taskIndex",
          "type": "uint256"
        },
        {
          "indexed": false,
          "internalType": "enum TaskContract.TaskStatus",
          "name": "status",
          "type": "uint8"
        },
        {
          "indexed": false,
          "internalType": "uint256",
          "name": "date",
          "type": "uint256"
        }
      ],
      "name": "TaskUpdated",
      "type": "event"
    },
    {
      "inputs": [
        {
          "internalType": "address",
          "name": "_user",
          "type": "address"
        },
        {
          "internalType": "string",
          "name": "_description",
          "type": "string"
        },
        {
          "internalType": "uint256",
          "name": "_date",
          "type": "uint256"
        }
      ],
      "name": "createTask",
      "outputs": [],
      "stateMutability": "nonpayable",
      "type": "function"
    },
    {
      "inputs": [
        {
          "internalType": "address",
          "name": "_user",
          "type": "address"
        },
        {
          "internalType": "string",
          "name": "_description",
          "type": "string"
        },
        {
          "internalType": "uint256",
          "name": "_date",
          "type": "uint256"
        }
      ],
      "name": "createTaskForUser",
      "outputs": [],
      "stateMutability": "nonpayable",
      "type": "function"
    },
    {
      "inputs": [
        {
          "internalType": "address",
          "name": "_user",
          "type": "address"
        },
        {
          "internalType": "uint256",
          "name": "_date",
          "type": "uint256"
        }
      ],
      "name": "getAllTasks",
      "outputs": [
        {
          "components": [
            {
              "internalType": "string",
              "name": "description",
              "type": "string"
            },
            {
              "internalType": "enum TaskContract.TaskStatus",
              "name": "status",
              "type": "uint8"
            },
            {
              "internalType": "address",
              "name": "creator",
              "type": "address"
            },
            {
              "internalType": "address",
              "name": "assignedTo",
              "type": "address"
            }
          ],
          "internalType": "struct TaskContract.Task[]",
          "name": "",
          "type": "tuple[]"
        }
      ],
      "stateMutability": "view",
      "type": "function"
    },
    {
      "inputs": [
        {
          "internalType": "uint256",
          "name": "_date",
          "type": "uint256"
        }
      ],
      "name": "getAllTasksForDate",
      "outputs": [
        {
          "components": [
            {
              "internalType": "string",
              "name": "description",
              "type": "string"
            },
            {
              "internalType": "enum TaskContract.TaskStatus",
              "name": "status",
              "type": "uint8"
            },
            {
              "internalType": "address",
              "name": "creator",
              "type": "address"
            },
            {
              "internalType": "address",
              "name": "assignedTo",
              "type": "address"
            }
          ],
          "internalType": "struct TaskContract.Task[]",
          "name": "",
          "type": "tuple[]"
        }
      ],
      "stateMutability": "view",
      "type": "function"
    },
    {
      "inputs": [
        {
          "internalType": "address",
          "name": "_user",
          "type": "address"
        },
        {
          "internalType": "uint256",
          "name": "_date",
          "type": "uint256"
        }
      ],
      "name": "getCompletedTasks",
      "outputs": [
        {
          "components": [
            {
              "internalType": "string",
              "name": "description",
              "type": "string"
            },
            {
              "internalType": "enum TaskContract.TaskStatus",
              "name": "status",
              "type": "uint8"
            },
            {
              "internalType": "address",
              "name": "creator",
              "type": "address"
            },
            {
              "internalType": "address",
              "name": "assignedTo",
              "type": "address"
            }
          ],
          "internalType": "struct TaskContract.Task[]",
          "name": "",
          "type": "tuple[]"
        }
      ],
      "stateMutability": "view",
      "type": "function"
    },
    {
      "inputs": [
        {
          "internalType": "address",
          "name": "_user",
          "type": "address"
        },
        {
          "internalType": "uint256",
          "name": "_date",
          "type": "uint256"
        }
      ],
      "name": "getPendingTasks",
      "outputs": [
        {
          "components": [
            {
              "internalType": "string",
              "name": "description",
              "type": "string"
            },
            {
              "internalType": "enum TaskContract.TaskStatus",
              "name": "status",
              "type": "uint8"
            },
            {
              "internalType": "address",
              "name": "creator",
              "type": "address"
            },
            {
              "internalType": "address",
              "name": "assignedTo",
              "type": "address"
            }
          ],
          "internalType": "struct TaskContract.Task[]",
          "name": "",
          "type": "tuple[]"
        }
      ],
      "stateMutability": "view",
      "type": "function"
    },
    {
      "inputs": [
        {
          "internalType": "address",
          "name": "_user",
          "type": "address"
        }
      ],
      "name": "getTasksByAddress",
      "outputs": [
        {
          "components": [
            {
              "internalType": "string",
              "name": "description",
              "type": "string"
            },
            {
              "internalType": "enum TaskContract.TaskStatus",
              "name": "status",
              "type": "uint8"
            },
            {
              "internalType": "address",
              "name": "creator",
              "type": "address"
            },
            {
              "internalType": "address",
              "name": "assignedTo",
              "type": "address"
            }
          ],
          "internalType": "struct TaskContract.Task[]",
          "name": "",
          "type": "tuple[]"
        }
      ],
      "stateMutability": "view",
      "type": "function"
    },
    {
      "inputs": [],
      "name": "getUserList",
      "outputs": [
        {
          "internalType": "address[]",
          "name": "",
          "type": "address[]"
        }
      ],
      "stateMutability": "view",
      "type": "function"
    },
    {
      "inputs": [
        {
          "internalType": "address",
          "name": "",
          "type": "address"
        }
      ],
      "name": "isUserTracked",
      "outputs": [
        {
          "internalType": "bool",
          "name": "",
          "type": "bool"
        }
      ],
      "stateMutability": "view",
      "type": "function"
    },
    {
      "inputs": [
        {
          "internalType": "uint256",
          "name": "_taskIndex",
          "type": "uint256"
        },
        {
          "internalType": "enum TaskContract.TaskStatus",
          "name": "_status",
          "type": "uint8"
        },
        {
          "internalType": "uint256",
          "name": "_date",
          "type": "uint256"
        }
      ],
      "name": "updateTask",
      "outputs": [],
      "stateMutability": "nonpayable",
      "type": "function"
    },
    {
      "inputs": [
        {
          "internalType": "uint256",
          "name": "",
          "type": "uint256"
        }
      ],
      "name": "userList",
      "outputs": [
        {
          "internalType": "address",
          "name": "",
          "type": "address"
        }
      ],
      "stateMutability": "view",
      "type": "function"
    }
  ],
  "bytecode": "0x6080604052348015600f57600080fd5b506129f68061001f6000396000f3fe608060405234801561001057600080fd5b50600436106100a95760003560e01c8063968ee03711610071578063968ee037146101765780639f4216e8146101a6578063b8522043146101d6578063e6ef3231146101f4578063eb83069414610224578063fd24bf4b14610254576100a9565b80631ec249a1146100ae578063682acc58146100de5780637cde6b7f1461010e5780638bba33e51461012a57806391f7d66714610146575b600080fd5b6100c860048036038101906100c39190611cdb565b610270565b6040516100d59190611d23565b60405180910390f35b6100f860048036038101906100f39190611d74565b610290565b6040516101059190611fef565b60405180910390f35b61012860048036038101906101239190612036565b6102a6565b005b610144600480360381019061013f91906121be565b6105ca565b005b610160600480360381019061015b919061222d565b61098c565b60405161016d9190611fef565b60405180910390f35b610190600480360381019061018b9190611d74565b610d45565b60405161019d9190611fef565b60405180910390f35b6101c060048036038101906101bb919061222d565b610fe0565b6040516101cd9190612269565b60405180910390f35b6101de61101f565b6040516101eb9190612333565b60405180910390f35b61020e60048036038101906102099190611cdb565b6110ad565b60405161021b9190611fef565b60405180910390f35b61023e60048036038101906102399190611d74565b6112c3565b60405161024b9190611fef565b60405180910390f35b61026e600480360381019061026991906121be565b6112d9565b005b60036020528060005260406000206000915054906101000a900460ff1681565b606061029e8383600161162c565b905092915050565b3383826000600160008573ffffffffffffffffffffffffffffffffffffffff1673ffffffffffffffffffffffffffffffffffffffff1681526020019081526020016000206000838152602001908152602001600020805490501161033f576040517f08c379a0000000000000000000000000000000000000000000000000000000008152600401610336906123b2565b60405180910390fd5b600160008473ffffffffffffffffffffffffffffffffffffffff1673ffffffffffffffffffffffffffffffffffffffff16815260200190815260200160002060008281526020019081526020016000208054905082106103d4576040517f08c379a00000000000000000000000000000000000000000000000000000000081526004016103cb9061241e565b60405180910390fd5b3373ffffffffffffffffffffffffffffffffffffffff16600160008573ffffffffffffffffffffffffffffffffffffffff1673ffffffffffffffffffffffffffffffffffffffff1681526020019081526020016000206000838152602001908152602001600020838154811061044d5761044c61243e565b5b906000526020600020906003020160010160019054906101000a900473ffffffffffffffffffffffffffffffffffffffff1673ffffffffffffffffffffffffffffffffffffffff16146104d5576040517f08c379a00000000000000000000000000000000000000000000000000000000081526004016104cc906124df565b60405180910390fd5b84600160003373ffffffffffffffffffffffffffffffffffffffff1673ffffffffffffffffffffffffffffffffffffffff168152602001908152602001600020600086815260200190815260200160002087815481106105385761053761243e565b5b906000526020600020906003020160010160006101000a81548160ff0219169083600181111561056b5761056a611e70565b5b02179055503373ffffffffffffffffffffffffffffffffffffffff167f0e3b2905866148bd0aee2a06aa753391b54282ca1f041522fcf19fa9704a5fac8787876040516105ba9392919061251d565b60405180910390a2505050505050565b600073ffffffffffffffffffffffffffffffffffffffff168373ffffffffffffffffffffffffffffffffffffffff1603610639576040517f08c379a0000000000000000000000000000000000000000000000000000000008152600401610630906125a0565b60405180910390fd5b60006040518060800160405280848152602001600060018111156106605761065f611e70565b5b81526020013373ffffffffffffffffffffffffffffffffffffffff1681526020018573ffffffffffffffffffffffffffffffffffffffff168152509050600160008573ffffffffffffffffffffffffffffffffffffffff1673ffffffffffffffffffffffffffffffffffffffff1681526020019081526020016000206000838152602001908152602001600020819080600181540180825580915050600190039060005260206000209060030201600090919091909150600082015181600001908161072c91906127cc565b5060208201518160010160006101000a81548160ff0219169083600181111561075857610757611e70565b5b021790555060408201518160010160016101000a81548173ffffffffffffffffffffffffffffffffffffffff021916908373ffffffffffffffffffffffffffffffffffffffff16021790555060608201518160020160006101000a81548173ffffffffffffffffffffffffffffffffffffffff021916908373ffffffffffffffffffffffffffffffffffffffff16021790555050506000808573ffffffffffffffffffffffffffffffffffffffff1673ffffffffffffffffffffffffffffffffffffffff168152602001908152602001600020819080600181540180825580915050600190039060005260206000209060030201600090919091909150600082015181600001908161086a91906127cc565b5060208201518160010160006101000a81548160ff0219169083600181111561089657610895611e70565b5b021790555060408201518160010160016101000a81548173ffffffffffffffffffffffffffffffffffffffff021916908373ffffffffffffffffffffffffffffffffffffffff16021790555060608201518160020160006101000a81548173ffffffffffffffffffffffffffffffffffffffff021916908373ffffffffffffffffffffffffffffffffffffffff160217905550505061093484611af3565b8373ffffffffffffffffffffffffffffffffffffffff167f3e184d0ec72f044ba4ceabfd85549d7cea6c7372dbb192ba132fd828276e3c5d84338560405161097e939291906128d7565b60405180910390a250505050565b60606000805b600280549050811015610a51576000600282815481106109b5576109b461243e565b5b9060005260206000200160009054906101000a900473ffffffffffffffffffffffffffffffffffffffff169050600160008273ffffffffffffffffffffffffffffffffffffffff1673ffffffffffffffffffffffffffffffffffffffff16815260200190815260200160002060008681526020019081526020016000208054905083610a419190612944565b9250508080600101915050610992565b5060008167ffffffffffffffff811115610a6e57610a6d612093565b5b604051908082528060200260200182016040528015610aa757816020015b610a94611c03565b815260200190600190039081610a8c5790505b5090506000805b600280549050811015610d3957600060028281548110610ad157610ad061243e565b5b9060005260206000200160009054906101000a900473ffffffffffffffffffffffffffffffffffffffff16905060005b600160008373ffffffffffffffffffffffffffffffffffffffff1673ffffffffffffffffffffffffffffffffffffffff168152602001908152602001600020600089815260200190815260200160002080549050811015610d2a576000600160008473ffffffffffffffffffffffffffffffffffffffff1673ffffffffffffffffffffffffffffffffffffffff16815260200190815260200160002060008a81526020019081526020016000208281548110610bc057610bbf61243e565b5b906000526020600020906003020190506040518060800160405280826000018054610bea906125ef565b80601f0160208091040260200160405190810160405280929190818152602001828054610c16906125ef565b8015610c635780601f10610c3857610100808354040283529160200191610c63565b820191906000526020600020905b815481529060010190602001808311610c4657829003601f168201915b505050505081526020018260010160009054906101000a900460ff166001811115610c9157610c90611e70565b5b81526020018260010160019054906101000a900473ffffffffffffffffffffffffffffffffffffffff1673ffffffffffffffffffffffffffffffffffffffff1681526020018473ffffffffffffffffffffffffffffffffffffffff16815250868681518110610d0357610d0261243e565b5b60200260200101819052508480610d1990612978565b955050508080600101915050610b01565b50508080600101915050610aae565b50819350505050919050565b60606000600160008573ffffffffffffffffffffffffffffffffffffffff1673ffffffffffffffffffffffffffffffffffffffff1681526020019081526020016000206000848152602001908152602001600020805480602002602001604051908101604052809291908181526020016000905b82821015610f645783829060005260206000209060030201604051806080016040529081600082018054610dec906125ef565b80601f0160208091040260200160405190810160405280929190818152602001828054610e18906125ef565b8015610e655780601f10610e3a57610100808354040283529160200191610e65565b820191906000526020600020905b815481529060010190602001808311610e4857829003601f168201915b505050505081526020016001820160009054906101000a900460ff166001811115610e9357610e92611e70565b5b6001811115610ea557610ea4611e70565b5b81526020016001820160019054906101000a900473ffffffffffffffffffffffffffffffffffffffff1673ffffffffffffffffffffffffffffffffffffffff1673ffffffffffffffffffffffffffffffffffffffff1681526020016002820160009054906101000a900473ffffffffffffffffffffffffffffffffffffffff1673ffffffffffffffffffffffffffffffffffffffff1673ffffffffffffffffffffffffffffffffffffffff168152505081526020019060010190610db9565b50505050905060005b8151811015610fd55784828281518110610f8a57610f8961243e565b5b60200260200101516060019073ffffffffffffffffffffffffffffffffffffffff16908173ffffffffffffffffffffffffffffffffffffffff16815250508080600101915050610f6d565b508091505092915050565b60028181548110610ff057600080fd5b906000526020600020016000915054906101000a900473ffffffffffffffffffffffffffffffffffffffff1681565b606060028054806020026020016040519081016040528092919081815260200182805480156110a357602002820191906000526020600020905b8160009054906101000a900473ffffffffffffffffffffffffffffffffffffffff1673ffffffffffffffffffffffffffffffffffffffff1681526020019060010190808311611059575b5050505050905090565b60606000808373ffffffffffffffffffffffffffffffffffffffff1673ffffffffffffffffffffffffffffffffffffffff168152602001908152602001600020805480602002602001604051908101604052809291908181526020016000905b828210156112b85783829060005260206000209060030201604051806080016040529081600082018054611140906125ef565b80601f016020809104026020016040519081016040528092919081815260200182805461116c906125ef565b80156111b95780601f1061118e576101008083540402835291602001916111b9565b820191906000526020600020905b81548152906001019060200180831161119c57829003601f168201915b505050505081526020016001820160009054906101000a900460ff1660018111156111e7576111e6611e70565b5b60018111156111f9576111f8611e70565b5b81526020016001820160019054906101000a900473ffffffffffffffffffffffffffffffffffffffff1673ffffffffffffffffffffffffffffffffffffffff1673ffffffffffffffffffffffffffffffffffffffff1681526020016002820160009054906101000a900473ffffffffffffffffffffffffffffffffffffffff1673ffffffffffffffffffffffffffffffffffffffff1673ffffffffffffffffffffffffffffffffffffffff16815250508152602001906001019061110d565b505050509050919050565b60606112d18383600061162c565b905092915050565b6112e283611af3565b600060405180608001604052808481526020016000600181111561130957611308611e70565b5b81526020013373ffffffffffffffffffffffffffffffffffffffff1681526020018573ffffffffffffffffffffffffffffffffffffffff168152509050600160008573ffffffffffffffffffffffffffffffffffffffff1673ffffffffffffffffffffffffffffffffffffffff168152602001908152602001600020600083815260200190815260200160002081908060018154018082558091505060019003906000526020600020906003020160009091909190915060008201518160000190816113d591906127cc565b5060208201518160010160006101000a81548160ff0219169083600181111561140157611400611e70565b5b021790555060408201518160010160016101000a81548173ffffffffffffffffffffffffffffffffffffffff021916908373ffffffffffffffffffffffffffffffffffffffff16021790555060608201518160020160006101000a81548173ffffffffffffffffffffffffffffffffffffffff021916908373ffffffffffffffffffffffffffffffffffffffff16021790555050506000808573ffffffffffffffffffffffffffffffffffffffff1673ffffffffffffffffffffffffffffffffffffffff168152602001908152602001600020819080600181540180825580915050600190039060005260206000209060030201600090919091909150600082015181600001908161151391906127cc565b5060208201518160010160006101000a81548160ff0219169083600181111561153f5761153e611e70565b5b021790555060408201518160010160016101000a81548173ffffffffffffffffffffffffffffffffffffffff021916908373ffffffffffffffffffffffffffffffffffffffff16021790555060608201518160020160006101000a81548173ffffffffffffffffffffffffffffffffffffffff021916908373ffffffffffffffffffffffffffffffffffffffff16021790555050508373ffffffffffffffffffffffffffffffffffffffff167f3e184d0ec72f044ba4ceabfd85549d7cea6c7372dbb192ba132fd828276e3c5d84338560405161161e939291906128d7565b60405180910390a250505050565b60606000805b600160008773ffffffffffffffffffffffffffffffffffffffff1673ffffffffffffffffffffffffffffffffffffffff168152602001908152602001600020600086815260200190815260200160002080549050811015611754578360018111156116a05761169f611e70565b5b600160008873ffffffffffffffffffffffffffffffffffffffff1673ffffffffffffffffffffffffffffffffffffffff168152602001908152602001600020600087815260200190815260200160002082815481106117025761170161243e565b5b906000526020600020906003020160010160009054906101000a900460ff16600181111561173357611732611e70565b5b0361174757818061174390612978565b9250505b8080600101915050611632565b5060008167ffffffffffffffff81111561177157611770612093565b5b6040519080825280602002602001820160405280156117aa57816020015b611797611c03565b81526020019060019003908161178f5790505b5090506000805b600160008973ffffffffffffffffffffffffffffffffffffffff1673ffffffffffffffffffffffffffffffffffffffff168152602001908152602001600020600088815260200190815260200160002080549050811015611ae55785600181111561181f5761181e611e70565b5b600160008a73ffffffffffffffffffffffffffffffffffffffff1673ffffffffffffffffffffffffffffffffffffffff168152602001908152602001600020600089815260200190815260200160002082815481106118815761188061243e565b5b906000526020600020906003020160010160009054906101000a900460ff1660018111156118b2576118b1611e70565b5b03611ad857600160008973ffffffffffffffffffffffffffffffffffffffff1673ffffffffffffffffffffffffffffffffffffffff168152602001908152602001600020600088815260200190815260200160002081815481106119195761191861243e565b5b9060005260206000209060030201604051806080016040529081600082018054611942906125ef565b80601f016020809104026020016040519081016040528092919081815260200182805461196e906125ef565b80156119bb5780601f10611990576101008083540402835291602001916119bb565b820191906000526020600020905b81548152906001019060200180831161199e57829003601f168201915b505050505081526020016001820160009054906101000a900460ff1660018111156119e9576119e8611e70565b5b60018111156119fb576119fa611e70565b5b81526020016001820160019054906101000a900473ffffffffffffffffffffffffffffffffffffffff1673ffffffffffffffffffffffffffffffffffffffff1673ffffffffffffffffffffffffffffffffffffffff1681526020016002820160009054906101000a900473ffffffffffffffffffffffffffffffffffffffff1673ffffffffffffffffffffffffffffffffffffffff1673ffffffffffffffffffffffffffffffffffffffff1681525050838381518110611abe57611abd61243e565b5b60200260200101819052508180611ad490612978565b9250505b80806001019150506117b1565b508193505050509392505050565b600360008273ffffffffffffffffffffffffffffffffffffffff1673ffffffffffffffffffffffffffffffffffffffff16815260200190815260200160002060009054906101000a900460ff16611c00576002819080600181540180825580915050600190039060005260206000200160009091909190916101000a81548173ffffffffffffffffffffffffffffffffffffffff021916908373ffffffffffffffffffffffffffffffffffffffff1602179055506001600360008373ffffffffffffffffffffffffffffffffffffffff1673ffffffffffffffffffffffffffffffffffffffff16815260200190815260200160002060006101000a81548160ff0219169083151502179055505b50565b60405180608001604052806060815260200160006001811115611c2957611c28611e70565b5b8152602001600073ffffffffffffffffffffffffffffffffffffffff168152602001600073ffffffffffffffffffffffffffffffffffffffff1681525090565b6000604051905090565b600080fd5b600080fd5b600073ffffffffffffffffffffffffffffffffffffffff82169050919050565b6000611ca882611c7d565b9050919050565b611cb881611c9d565b8114611cc357600080fd5b50565b600081359050611cd581611caf565b92915050565b600060208284031215611cf157611cf0611c73565b5b6000611cff84828501611cc6565b91505092915050565b60008115159050919050565b611d1d81611d08565b82525050565b6000602082019050611d386000830184611d14565b92915050565b6000819050919050565b611d5181611d3e565b8114611d5c57600080fd5b50565b600081359050611d6e81611d48565b92915050565b60008060408385031215611d8b57611d8a611c73565b5b6000611d9985828601611cc6565b9250506020611daa85828601611d5f565b9150509250929050565b600081519050919050565b600082825260208201905092915050565b6000819050602082019050919050565b600081519050919050565b600082825260208201905092915050565b60005b83811015611e1a578082015181840152602081019050611dff565b60008484015250505050565b6000601f19601f8301169050919050565b6000611e4282611de0565b611e4c8185611deb565b9350611e5c818560208601611dfc565b611e6581611e26565b840191505092915050565b7f4e487b7100000000000000000000000000000000000000000000000000000000600052602160045260246000fd5b60028110611eb057611eaf611e70565b5b50565b6000819050611ec182611e9f565b919050565b6000611ed182611eb3565b9050919050565b611ee181611ec6565b82525050565b611ef081611c9d565b82525050565b60006080830160008301518482036000860152611f138282611e37565b9150506020830151611f286020860182611ed8565b506040830151611f3b6040860182611ee7565b506060830151611f4e6060860182611ee7565b508091505092915050565b6000611f658383611ef6565b905092915050565b6000602082019050919050565b6000611f8582611db4565b611f8f8185611dbf565b935083602082028501611fa185611dd0565b8060005b85811015611fdd5784840389528151611fbe8582611f59565b9450611fc983611f6d565b925060208a01995050600181019050611fa5565b50829750879550505050505092915050565b600060208201905081810360008301526120098184611f7a565b905092915050565b6002811061201e57600080fd5b50565b60008135905061203081612011565b92915050565b60008060006060848603121561204f5761204e611c73565b5b600061205d86828701611d5f565b935050602061206e86828701612021565b925050604061207f86828701611d5f565b9150509250925092565b600080fd5b600080fd5b7f4e487b7100000000000000000000000000000000000000000000000000000000600052604160045260246000fd5b6120cb82611e26565b810181811067ffffffffffffffff821117156120ea576120e9612093565b5b80604052505050565b60006120fd611c69565b905061210982826120c2565b919050565b600067ffffffffffffffff82111561212957612128612093565b5b61213282611e26565b9050602081019050919050565b82818337600083830152505050565b600061216161215c8461210e565b6120f3565b90508281526020810184848401111561217d5761217c61208e565b5b61218884828561213f565b509392505050565b600082601f8301126121a5576121a4612089565b5b81356121b584826020860161214e565b91505092915050565b6000806000606084860312156121d7576121d6611c73565b5b60006121e586828701611cc6565b935050602084013567ffffffffffffffff81111561220657612205611c78565b5b61221286828701612190565b925050604061222386828701611d5f565b9150509250925092565b60006020828403121561224357612242611c73565b5b600061225184828501611d5f565b91505092915050565b61226381611c9d565b82525050565b600060208201905061227e600083018461225a565b92915050565b600081519050919050565b600082825260208201905092915050565b6000819050602082019050919050565b60006122bc8383611ee7565b60208301905092915050565b6000602082019050919050565b60006122e082612284565b6122ea818561228f565b93506122f5836122a0565b8060005b8381101561232657815161230d88826122b0565b9750612318836122c8565b9250506001810190506122f9565b5085935050505092915050565b6000602082019050818103600083015261234d81846122d5565b905092915050565b600082825260208201905092915050565b7f4e6f207461736b7320666f756e6420666f722075736572000000000000000000600082015250565b600061239c601783612355565b91506123a782612366565b602082019050919050565b600060208201905081810360008301526123cb8161238f565b9050919050565b7f496e76616c6964207461736b20696e6465780000000000000000000000000000600082015250565b6000612408601283612355565b9150612413826123d2565b602082019050919050565b60006020820190508181036000830152612437816123fb565b9050919050565b7f4e487b7100000000000000000000000000000000000000000000000000000000600052603260045260246000fd5b7f596f752063616e206f6e6c792075706461746520796f7572206f776e2074617360008201527f6b73000000000000000000000000000000000000000000000000000000000000602082015250565b60006124c9602283612355565b91506124d48261246d565b604082019050919050565b600060208201905081810360008301526124f8816124bc565b9050919050565b61250881611d3e565b82525050565b61251781611ec6565b82525050565b600060608201905061253260008301866124ff565b61253f602083018561250e565b61254c60408301846124ff565b949350505050565b7f496e76616c696420757365722061646472657373000000000000000000000000600082015250565b600061258a601483612355565b915061259582612554565b602082019050919050565b600060208201905081810360008301526125b98161257d565b9050919050565b7f4e487b7100000000000000000000000000000000000000000000000000000000600052602260045260246000fd5b6000600282049050600182168061260757607f821691505b60208210810361261a576126196125c0565b5b50919050565b60008190508160005260206000209050919050565b60006020601f8301049050919050565b600082821b905092915050565b6000600883026126827fffffffffffffffffffffffffffffffffffffffffffffffffffffffffffffffff82612645565b61268c8683612645565b95508019841693508086168417925050509392505050565b6000819050919050565b60006126c96126c46126bf84611d3e565b6126a4565b611d3e565b9050919050565b6000819050919050565b6126e3836126ae565b6126f76126ef826126d0565b848454612652565b825550505050565b600090565b61270c6126ff565b6127178184846126da565b505050565b5b8181101561273b57612730600082612704565b60018101905061271d565b5050565b601f8211156127805761275181612620565b61275a84612635565b81016020851015612769578190505b61277d61277585612635565b83018261271c565b50505b505050565b600082821c905092915050565b60006127a360001984600802612785565b1980831691505092915050565b60006127bc8383612792565b9150826002028217905092915050565b6127d582611de0565b67ffffffffffffffff8111156127ee576127ed612093565b5b6127f882546125ef565b61280382828561273f565b600060209050601f8311600181146128365760008415612824578287015190505b61282e85826127b0565b865550612896565b601f19841661284486612620565b60005b8281101561286c57848901518255600182019150602085019450602081019050612847565b868310156128895784890151612885601f891682612792565b8355505b6001600288020188555050505b505050505050565b60006128a982611de0565b6128b38185612355565b93506128c3818560208601611dfc565b6128cc81611e26565b840191505092915050565b600060608201905081810360008301526128f1818661289e565b9050612900602083018561225a565b61290d60408301846124ff565b949350505050565b7f4e487b7100000000000000000000000000000000000000000000000000000000600052601160045260246000fd5b600061294f82611d3e565b915061295a83611d3e565b925082820190508082111561297257612971612915565b5b92915050565b600061298382611d3e565b91507fffffffffffffffffffffffffffffffffffffffffffffffffffffffffffffffff82036129b5576129b4612915565b5b60018201905091905056fea26469706673582212203638881d2e4d9d3b80cafbeab171e4b4d95a238ba40aa6e4598d7d8b2127683364736f6c634300081c0033",
  "linkReferences": {},
  "deployedLinkReferences": {}
}