{
  "_format": "hh-sol-artifact-1",
  "contractName": "TaskContract",
  "sourceName": "contracts/TaskContract.sol",
  "abi": [
    {
      "anonymous": false,
      "inputs": [
        {
          "indexed": true,
          "internalType": "address",
          "name": "assignedTo",
          "type": "address"
        },
        {
          "indexed": false,
          "internalType": "string",
          "name": "description",
          "type": "string"
        },
        {
          "indexed": false,
          "internalType": "address",
          "name": "creator",
          "type": "address"
        },
        {
          "indexed": false,
          "internalType": "uint256",
          "name": "date",
          "type": "uint256"
        }
      ],
      "name": "TaskCreated",
      "type": "event"
    },
    {
      "anonymous": false,
      "inputs": [
        {
          "indexed": true,
          "internalType": "address",
          "name": "assignedTo",
          "type": "address"
        },
        {
          "indexed": false,
          "internalType": "uint256",
          "name": "taskIndex",
          "type": "uint256"
        },
        {
          "indexed": false,
          "internalType": "enum TaskContract.TaskStatus",
          "name": "status",
          "type": "uint8"
        },
        {
          "indexed": false,
          "internalType": "uint256",
          "name": "date",
          "type": "uint256"
        }
      ],
      "name": "TaskUpdated",
      "type": "event"
    },
    {
      "inputs": [
        {
          "internalType": "address",
          "name": "_user",
          "type": "address"
        },
        {
          "internalType": "string",
          "name": "_description",
          "type": "string"
        },
        {
          "internalType": "uint256",
          "name": "_date",
          "type": "uint256"
        }
      ],
      "name": "createTask",
      "outputs": [],
      "stateMutability": "nonpayable",
      "type": "function"
    },
    {
      "inputs": [
        {
          "internalType": "address",
          "name": "_user",
          "type": "address"
        },
        {
          "internalType": "string",
          "name": "_description",
          "type": "string"
        },
        {
          "internalType": "uint256",
          "name": "_date",
          "type": "uint256"
        }
      ],
      "name": "createTaskForUser",
      "outputs": [],
      "stateMutability": "nonpayable",
      "type": "function"
    },
    {
      "inputs": [
        {
          "internalType": "address",
          "name": "_user",
          "type": "address"
        },
        {
          "internalType": "uint256",
          "name": "_date",
          "type": "uint256"
        }
      ],
      "name": "getAllTasks",
      "outputs": [
        {
          "components": [
            {
              "internalType": "string",
              "name": "description",
              "type": "string"
            },
            {
              "internalType": "enum TaskContract.TaskStatus",
              "name": "status",
              "type": "uint8"
            },
            {
              "internalType": "address",
              "name": "creator",
              "type": "address"
            },
            {
              "internalType": "address",
              "name": "assignedTo",
              "type": "address"
            }
          ],
          "internalType": "struct TaskContract.Task[]",
          "name": "",
          "type": "tuple[]"
        }
      ],
      "stateMutability": "view",
      "type": "function"
    },
    {
      "inputs": [
        {
          "internalType": "uint256",
          "name": "_date",
          "type": "uint256"
        }
      ],
      "name": "getAllTasksForDate",
      "outputs": [
        {
          "components": [
            {
              "internalType": "string",
              "name": "description",
              "type": "string"
            },
            {
              "internalType": "enum TaskContract.TaskStatus",
              "name": "status",
              "type": "uint8"
            },
            {
              "internalType": "address",
              "name": "creator",
              "type": "address"
            },
            {
              "internalType": "address",
              "name": "assignedTo",
              "type": "address"
            }
          ],
          "internalType": "struct TaskContract.Task[]",
          "name": "",
          "type": "tuple[]"
        }
      ],
      "stateMutability": "view",
      "type": "function"
    },
    {
      "inputs": [
        {
          "internalType": "address",
          "name": "_user",
          "type": "address"
        },
        {
          "internalType": "uint256",
          "name": "_date",
          "type": "uint256"
        }
      ],
      "name": "getCompletedTasks",
      "outputs": [
        {
          "components": [
            {
              "internalType": "string",
              "name": "description",
              "type": "string"
            },
            {
              "internalType": "enum TaskContract.TaskStatus",
              "name": "status",
              "type": "uint8"
            },
            {
              "internalType": "address",
              "name": "creator",
              "type": "address"
            },
            {
              "internalType": "address",
              "name": "assignedTo",
              "type": "address"
            }
          ],
          "internalType": "struct TaskContract.Task[]",
          "name": "",
          "type": "tuple[]"
        }
      ],
      "stateMutability": "view",
      "type": "function"
    },
    {
      "inputs": [
        {
          "internalType": "address",
          "name": "_user",
          "type": "address"
        },
        {
          "internalType": "uint256",
          "name": "_date",
          "type": "uint256"
        }
      ],
      "name": "getPendingTasks",
      "outputs": [
        {
          "components": [
            {
              "internalType": "string",
              "name": "description",
              "type": "string"
            },
            {
              "internalType": "enum TaskContract.TaskStatus",
              "name": "status",
              "type": "uint8"
            },
            {
              "internalType": "address",
              "name": "creator",
              "type": "address"
            },
            {
              "internalType": "address",
              "name": "assignedTo",
              "type": "address"
            }
          ],
          "internalType": "struct TaskContract.Task[]",
          "name": "",
          "type": "tuple[]"
        }
      ],
      "stateMutability": "view",
      "type": "function"
    },
    {
      "inputs": [
        {
          "internalType": "address",
          "name": "",
          "type": "address"
        }
      ],
      "name": "isUserTracked",
      "outputs": [
        {
          "internalType": "bool",
          "name": "",
          "type": "bool"
        }
      ],
      "stateMutability": "view",
      "type": "function"
    },
    {
      "inputs": [
        {
          "internalType": "uint256",
          "name": "_taskIndex",
          "type": "uint256"
        },
        {
          "internalType": "enum TaskContract.TaskStatus",
          "name": "_status",
          "type": "uint8"
        },
        {
          "internalType": "uint256",
          "name": "_date",
          "type": "uint256"
        }
      ],
      "name": "updateTask",
      "outputs": [],
      "stateMutability": "nonpayable",
      "type": "function"
    },
    {
      "inputs": [
        {
          "internalType": "uint256",
          "name": "",
          "type": "uint256"
        }
      ],
      "name": "userList",
      "outputs": [
        {
          "internalType": "address",
          "name": "",
          "type": "address"
        }
      ],
      "stateMutability": "view",
      "type": "function"
    }
  ],
  "bytecode": "0x6080604052348015600f57600080fd5b506123928061001f6000396000f3fe608060405234801561001057600080fd5b50600436106100935760003560e01c806391f7d6671161006657806391f7d66714610130578063968ee037146101605780639f4216e814610190578063eb830694146101c0578063fd24bf4b146101f057610093565b80631ec249a114610098578063682acc58146100c85780637cde6b7f146100f85780638bba33e514610114575b600080fd5b6100b260048036038101906100ad9190611748565b61020c565b6040516100bf9190611790565b60405180910390f35b6100e260048036038101906100dd91906117e1565b61022c565b6040516100ef9190611a5c565b60405180910390f35b610112600480360381019061010d9190611aa3565b610242565b005b61012e60048036038101906101299190611c2b565b610562565b005b61014a60048036038101906101459190611c9a565b6107e5565b6040516101579190611a5c565b60405180910390f35b61017a600480360381019061017591906117e1565b610b9b565b6040516101879190611a5c565b60405180910390f35b6101aa60048036038101906101a59190611c9a565b610e35565b6040516101b79190611cd6565b60405180910390f35b6101da60048036038101906101d591906117e1565b610e74565b6040516101e79190611a5c565b60405180910390f35b61020a60048036038101906102059190611c2b565b610e8a565b005b60026020528060005260406000206000915054906101000a900460ff1681565b606061023a8383600161109e565b905092915050565b33838260008060008573ffffffffffffffffffffffffffffffffffffffff1673ffffffffffffffffffffffffffffffffffffffff168152602001908152602001600020600083815260200190815260200160002080549050116102da576040517f08c379a00000000000000000000000000000000000000000000000000000000081526004016102d190611d4e565b60405180910390fd5b6000808473ffffffffffffffffffffffffffffffffffffffff1673ffffffffffffffffffffffffffffffffffffffff168152602001908152602001600020600082815260200190815260200160002080549050821061036e576040517f08c379a000000000000000000000000000000000000000000000000000000000815260040161036590611dba565b60405180910390fd5b3373ffffffffffffffffffffffffffffffffffffffff166000808573ffffffffffffffffffffffffffffffffffffffff1673ffffffffffffffffffffffffffffffffffffffff168152602001908152602001600020600083815260200190815260200160002083815481106103e6576103e5611dda565b5b906000526020600020906003020160010160019054906101000a900473ffffffffffffffffffffffffffffffffffffffff1673ffffffffffffffffffffffffffffffffffffffff161461046e576040517f08c379a000000000000000000000000000000000000000000000000000000000815260040161046590611e7b565b60405180910390fd5b846000803373ffffffffffffffffffffffffffffffffffffffff1673ffffffffffffffffffffffffffffffffffffffff168152602001908152602001600020600086815260200190815260200160002087815481106104d0576104cf611dda565b5b906000526020600020906003020160010160006101000a81548160ff02191690836001811115610503576105026118dd565b5b02179055503373ffffffffffffffffffffffffffffffffffffffff167f0e3b2905866148bd0aee2a06aa753391b54282ca1f041522fcf19fa9704a5fac87878760405161055293929190611eb9565b60405180910390a2505050505050565b600073ffffffffffffffffffffffffffffffffffffffff168373ffffffffffffffffffffffffffffffffffffffff16036105d1576040517f08c379a00000000000000000000000000000000000000000000000000000000081526004016105c890611f3c565b60405180910390fd5b60006040518060800160405280848152602001600060018111156105f8576105f76118dd565b5b81526020013373ffffffffffffffffffffffffffffffffffffffff1681526020018573ffffffffffffffffffffffffffffffffffffffff1681525090506000808573ffffffffffffffffffffffffffffffffffffffff1673ffffffffffffffffffffffffffffffffffffffff168152602001908152602001600020600083815260200190815260200160002081908060018154018082558091505060019003906000526020600020906003020160009091909190915060008201518160000190816106c39190612168565b5060208201518160010160006101000a81548160ff021916908360018111156106ef576106ee6118dd565b5b021790555060408201518160010160016101000a81548173ffffffffffffffffffffffffffffffffffffffff021916908373ffffffffffffffffffffffffffffffffffffffff16021790555060608201518160020160006101000a81548173ffffffffffffffffffffffffffffffffffffffff021916908373ffffffffffffffffffffffffffffffffffffffff160217905550505061078d84611560565b8373ffffffffffffffffffffffffffffffffffffffff167f3e184d0ec72f044ba4ceabfd85549d7cea6c7372dbb192ba132fd828276e3c5d8433856040516107d793929190612273565b60405180910390a250505050565b60606000805b6001805490508110156108a95760006001828154811061080e5761080d611dda565b5b9060005260206000200160009054906101000a900473ffffffffffffffffffffffffffffffffffffffff1690506000808273ffffffffffffffffffffffffffffffffffffffff1673ffffffffffffffffffffffffffffffffffffffff1681526020019081526020016000206000868152602001908152602001600020805490508361089991906122e0565b92505080806001019150506107eb565b5060008167ffffffffffffffff8111156108c6576108c5611b00565b5b6040519080825280602002602001820160405280156108ff57816020015b6108ec611670565b8152602001906001900390816108e45790505b5090506000805b600180549050811015610b8f5760006001828154811061092957610928611dda565b5b9060005260206000200160009054906101000a900473ffffffffffffffffffffffffffffffffffffffff16905060005b6000808373ffffffffffffffffffffffffffffffffffffffff1673ffffffffffffffffffffffffffffffffffffffff168152602001908152602001600020600089815260200190815260200160002080549050811015610b805760008060008473ffffffffffffffffffffffffffffffffffffffff1673ffffffffffffffffffffffffffffffffffffffff16815260200190815260200160002060008a81526020019081526020016000208281548110610a1657610a15611dda565b5b906000526020600020906003020190506040518060800160405280826000018054610a4090611f8b565b80601f0160208091040260200160405190810160405280929190818152602001828054610a6c90611f8b565b8015610ab95780601f10610a8e57610100808354040283529160200191610ab9565b820191906000526020600020905b815481529060010190602001808311610a9c57829003601f168201915b505050505081526020018260010160009054906101000a900460ff166001811115610ae757610ae66118dd565b5b81526020018260010160019054906101000a900473ffffffffffffffffffffffffffffffffffffffff1673ffffffffffffffffffffffffffffffffffffffff1681526020018473ffffffffffffffffffffffffffffffffffffffff16815250868681518110610b5957610b58611dda565b5b60200260200101819052508480610b6f90612314565b955050508080600101915050610959565b50508080600101915050610906565b50819350505050919050565b606060008060008573ffffffffffffffffffffffffffffffffffffffff1673ffffffffffffffffffffffffffffffffffffffff1681526020019081526020016000206000848152602001908152602001600020805480602002602001604051908101604052809291908181526020016000905b82821015610db95783829060005260206000209060030201604051806080016040529081600082018054610c4190611f8b565b80601f0160208091040260200160405190810160405280929190818152602001828054610c6d90611f8b565b8015610cba5780601f10610c8f57610100808354040283529160200191610cba565b820191906000526020600020905b815481529060010190602001808311610c9d57829003601f168201915b505050505081526020016001820160009054906101000a900460ff166001811115610ce857610ce76118dd565b5b6001811115610cfa57610cf96118dd565b5b81526020016001820160019054906101000a900473ffffffffffffffffffffffffffffffffffffffff1673ffffffffffffffffffffffffffffffffffffffff1673ffffffffffffffffffffffffffffffffffffffff1681526020016002820160009054906101000a900473ffffffffffffffffffffffffffffffffffffffff1673ffffffffffffffffffffffffffffffffffffffff1673ffffffffffffffffffffffffffffffffffffffff168152505081526020019060010190610c0e565b50505050905060005b8151811015610e2a5784828281518110610ddf57610dde611dda565b5b60200260200101516060019073ffffffffffffffffffffffffffffffffffffffff16908173ffffffffffffffffffffffffffffffffffffffff16815250508080600101915050610dc2565b508091505092915050565b60018181548110610e4557600080fd5b906000526020600020016000915054906101000a900473ffffffffffffffffffffffffffffffffffffffff1681565b6060610e828383600061109e565b905092915050565b610e9383611560565b6000604051806080016040528084815260200160006001811115610eba57610eb96118dd565b5b81526020013373ffffffffffffffffffffffffffffffffffffffff1681526020018573ffffffffffffffffffffffffffffffffffffffff1681525090506000808573ffffffffffffffffffffffffffffffffffffffff1673ffffffffffffffffffffffffffffffffffffffff16815260200190815260200160002060008381526020019081526020016000208190806001815401808255809150506001900390600052602060002090600302016000909190919091506000820151816000019081610f859190612168565b5060208201518160010160006101000a81548160ff02191690836001811115610fb157610fb06118dd565b5b021790555060408201518160010160016101000a81548173ffffffffffffffffffffffffffffffffffffffff021916908373ffffffffffffffffffffffffffffffffffffffff16021790555060608201518160020160006101000a81548173ffffffffffffffffffffffffffffffffffffffff021916908373ffffffffffffffffffffffffffffffffffffffff16021790555050508373ffffffffffffffffffffffffffffffffffffffff167f3e184d0ec72f044ba4ceabfd85549d7cea6c7372dbb192ba132fd828276e3c5d84338560405161109093929190612273565b60405180910390a250505050565b60606000805b6000808773ffffffffffffffffffffffffffffffffffffffff1673ffffffffffffffffffffffffffffffffffffffff1681526020019081526020016000206000868152602001908152602001600020805490508110156111c457836001811115611111576111106118dd565b5b6000808873ffffffffffffffffffffffffffffffffffffffff1673ffffffffffffffffffffffffffffffffffffffff1681526020019081526020016000206000878152602001908152602001600020828154811061117257611171611dda565b5b906000526020600020906003020160010160009054906101000a900460ff1660018111156111a3576111a26118dd565b5b036111b75781806111b390612314565b9250505b80806001019150506110a4565b5060008167ffffffffffffffff8111156111e1576111e0611b00565b5b60405190808252806020026020018201604052801561121a57816020015b611207611670565b8152602001906001900390816111ff5790505b5090506000805b6000808973ffffffffffffffffffffffffffffffffffffffff1673ffffffffffffffffffffffffffffffffffffffff1681526020019081526020016000206000888152602001908152602001600020805490508110156115525785600181111561128e5761128d6118dd565b5b6000808a73ffffffffffffffffffffffffffffffffffffffff1673ffffffffffffffffffffffffffffffffffffffff168152602001908152602001600020600089815260200190815260200160002082815481106112ef576112ee611dda565b5b906000526020600020906003020160010160009054906101000a900460ff1660018111156113205761131f6118dd565b5b03611545576000808973ffffffffffffffffffffffffffffffffffffffff1673ffffffffffffffffffffffffffffffffffffffff1681526020019081526020016000206000888152602001908152602001600020818154811061138657611385611dda565b5b90600052602060002090600302016040518060800160405290816000820180546113af90611f8b565b80601f01602080910402602001604051908101604052809291908181526020018280546113db90611f8b565b80156114285780601f106113fd57610100808354040283529160200191611428565b820191906000526020600020905b81548152906001019060200180831161140b57829003601f168201915b505050505081526020016001820160009054906101000a900460ff166001811115611456576114556118dd565b5b6001811115611468576114676118dd565b5b81526020016001820160019054906101000a900473ffffffffffffffffffffffffffffffffffffffff1673ffffffffffffffffffffffffffffffffffffffff1673ffffffffffffffffffffffffffffffffffffffff1681526020016002820160009054906101000a900473ffffffffffffffffffffffffffffffffffffffff1673ffffffffffffffffffffffffffffffffffffffff1673ffffffffffffffffffffffffffffffffffffffff168152505083838151811061152b5761152a611dda565b5b6020026020010181905250818061154190612314565b9250505b8080600101915050611221565b508193505050509392505050565b600260008273ffffffffffffffffffffffffffffffffffffffff1673ffffffffffffffffffffffffffffffffffffffff16815260200190815260200160002060009054906101000a900460ff1661166d576001819080600181540180825580915050600190039060005260206000200160009091909190916101000a81548173ffffffffffffffffffffffffffffffffffffffff021916908373ffffffffffffffffffffffffffffffffffffffff1602179055506001600260008373ffffffffffffffffffffffffffffffffffffffff1673ffffffffffffffffffffffffffffffffffffffff16815260200190815260200160002060006101000a81548160ff0219169083151502179055505b50565b60405180608001604052806060815260200160006001811115611696576116956118dd565b5b8152602001600073ffffffffffffffffffffffffffffffffffffffff168152602001600073ffffffffffffffffffffffffffffffffffffffff1681525090565b6000604051905090565b600080fd5b600080fd5b600073ffffffffffffffffffffffffffffffffffffffff82169050919050565b6000611715826116ea565b9050919050565b6117258161170a565b811461173057600080fd5b50565b6000813590506117428161171c565b92915050565b60006020828403121561175e5761175d6116e0565b5b600061176c84828501611733565b91505092915050565b60008115159050919050565b61178a81611775565b82525050565b60006020820190506117a56000830184611781565b92915050565b6000819050919050565b6117be816117ab565b81146117c957600080fd5b50565b6000813590506117db816117b5565b92915050565b600080604083850312156117f8576117f76116e0565b5b600061180685828601611733565b9250506020611817858286016117cc565b9150509250929050565b600081519050919050565b600082825260208201905092915050565b6000819050602082019050919050565b600081519050919050565b600082825260208201905092915050565b60005b8381101561188757808201518184015260208101905061186c565b60008484015250505050565b6000601f19601f8301169050919050565b60006118af8261184d565b6118b98185611858565b93506118c9818560208601611869565b6118d281611893565b840191505092915050565b7f4e487b7100000000000000000000000000000000000000000000000000000000600052602160045260246000fd5b6002811061191d5761191c6118dd565b5b50565b600081905061192e8261190c565b919050565b600061193e82611920565b9050919050565b61194e81611933565b82525050565b61195d8161170a565b82525050565b6000608083016000830151848203600086015261198082826118a4565b91505060208301516119956020860182611945565b5060408301516119a86040860182611954565b5060608301516119bb6060860182611954565b508091505092915050565b60006119d28383611963565b905092915050565b6000602082019050919050565b60006119f282611821565b6119fc818561182c565b935083602082028501611a0e8561183d565b8060005b85811015611a4a5784840389528151611a2b85826119c6565b9450611a36836119da565b925060208a01995050600181019050611a12565b50829750879550505050505092915050565b60006020820190508181036000830152611a7681846119e7565b905092915050565b60028110611a8b57600080fd5b50565b600081359050611a9d81611a7e565b92915050565b600080600060608486031215611abc57611abb6116e0565b5b6000611aca868287016117cc565b9350506020611adb86828701611a8e565b9250506040611aec868287016117cc565b9150509250925092565b600080fd5b600080fd5b7f4e487b7100000000000000000000000000000000000000000000000000000000600052604160045260246000fd5b611b3882611893565b810181811067ffffffffffffffff82111715611b5757611b56611b00565b5b80604052505050565b6000611b6a6116d6565b9050611b768282611b2f565b919050565b600067ffffffffffffffff821115611b9657611b95611b00565b5b611b9f82611893565b9050602081019050919050565b82818337600083830152505050565b6000611bce611bc984611b7b565b611b60565b905082815260208101848484011115611bea57611be9611afb565b5b611bf5848285611bac565b509392505050565b600082601f830112611c1257611c11611af6565b5b8135611c22848260208601611bbb565b91505092915050565b600080600060608486031215611c4457611c436116e0565b5b6000611c5286828701611733565b935050602084013567ffffffffffffffff811115611c7357611c726116e5565b5b611c7f86828701611bfd565b9250506040611c90868287016117cc565b9150509250925092565b600060208284031215611cb057611caf6116e0565b5b6000611cbe848285016117cc565b91505092915050565b611cd08161170a565b82525050565b6000602082019050611ceb6000830184611cc7565b92915050565b600082825260208201905092915050565b7f4e6f207461736b7320666f756e6420666f722075736572000000000000000000600082015250565b6000611d38601783611cf1565b9150611d4382611d02565b602082019050919050565b60006020820190508181036000830152611d6781611d2b565b9050919050565b7f496e76616c6964207461736b20696e6465780000000000000000000000000000600082015250565b6000611da4601283611cf1565b9150611daf82611d6e565b602082019050919050565b60006020820190508181036000830152611dd381611d97565b9050919050565b7f4e487b7100000000000000000000000000000000000000000000000000000000600052603260045260246000fd5b7f596f752063616e206f6e6c792075706461746520796f7572206f776e2074617360008201527f6b73000000000000000000000000000000000000000000000000000000000000602082015250565b6000611e65602283611cf1565b9150611e7082611e09565b604082019050919050565b60006020820190508181036000830152611e9481611e58565b9050919050565b611ea4816117ab565b82525050565b611eb381611933565b82525050565b6000606082019050611ece6000830186611e9b565b611edb6020830185611eaa565b611ee86040830184611e9b565b949350505050565b7f496e76616c696420757365722061646472657373000000000000000000000000600082015250565b6000611f26601483611cf1565b9150611f3182611ef0565b602082019050919050565b60006020820190508181036000830152611f5581611f19565b9050919050565b7f4e487b7100000000000000000000000000000000000000000000000000000000600052602260045260246000fd5b60006002820490506001821680611fa357607f821691505b602082108103611fb657611fb5611f5c565b5b50919050565b60008190508160005260206000209050919050565b60006020601f8301049050919050565b600082821b905092915050565b60006008830261201e7fffffffffffffffffffffffffffffffffffffffffffffffffffffffffffffffff82611fe1565b6120288683611fe1565b95508019841693508086168417925050509392505050565b6000819050919050565b600061206561206061205b846117ab565b612040565b6117ab565b9050919050565b6000819050919050565b61207f8361204a565b61209361208b8261206c565b848454611fee565b825550505050565b600090565b6120a861209b565b6120b3818484612076565b505050565b5b818110156120d7576120cc6000826120a0565b6001810190506120b9565b5050565b601f82111561211c576120ed81611fbc565b6120f684611fd1565b81016020851015612105578190505b61211961211185611fd1565b8301826120b8565b50505b505050565b600082821c905092915050565b600061213f60001984600802612121565b1980831691505092915050565b6000612158838361212e565b9150826002028217905092915050565b6121718261184d565b67ffffffffffffffff81111561218a57612189611b00565b5b6121948254611f8b565b61219f8282856120db565b600060209050601f8311600181146121d257600084156121c0578287015190505b6121ca858261214c565b865550612232565b601f1984166121e086611fbc565b60005b82811015612208578489015182556001820191506020850194506020810190506121e3565b868310156122255784890151612221601f89168261212e565b8355505b6001600288020188555050505b505050505050565b60006122458261184d565b61224f8185611cf1565b935061225f818560208601611869565b61226881611893565b840191505092915050565b6000606082019050818103600083015261228d818661223a565b905061229c6020830185611cc7565b6122a96040830184611e9b565b949350505050565b7f4e487b7100000000000000000000000000000000000000000000000000000000600052601160045260246000fd5b60006122eb826117ab565b91506122f6836117ab565b925082820190508082111561230e5761230d6122b1565b5b92915050565b600061231f826117ab565b91507fffffffffffffffffffffffffffffffffffffffffffffffffffffffffffffffff8203612351576123506122b1565b5b60018201905091905056fea2646970667358221220eaef4bf0c642f83df219b471f122cdb8c8a4802219ab49e0407b3b79bd4e7b3564736f6c634300081c0033",
  "linkReferences": {},
  "deployedLinkReferences": {}
}