{
  "_format": "hh-sol-artifact-1",
  "contractName": "TaskContract",
  "sourceName": "contracts/TaskContract.sol",
  "abi": [
    {
      "anonymous": false,
      "inputs": [
        {
          "indexed": true,
          "internalType": "address",
          "name": "assignedTo",
          "type": "address"
        },
        {
          "indexed": false,
          "internalType": "string",
          "name": "description",
          "type": "string"
        },
        {
          "indexed": false,
          "internalType": "address",
          "name": "creator",
          "type": "address"
        }
      ],
      "name": "TaskCreated",
      "type": "event"
    },
    {
      "anonymous": false,
      "inputs": [
        {
          "indexed": true,
          "internalType": "address",
          "name": "assignedTo",
          "type": "address"
        },
        {
          "indexed": false,
          "internalType": "uint256",
          "name": "taskIndex",
          "type": "uint256"
        },
        {
          "indexed": false,
          "internalType": "enum TaskContract.TaskStatus",
          "name": "status",
          "type": "uint8"
        }
      ],
      "name": "TaskUpdated",
      "type": "event"
    },
    {
      "inputs": [
        {
          "internalType": "address",
          "name": "_user",
          "type": "address"
        },
        {
          "internalType": "string",
          "name": "_description",
          "type": "string"
        }
      ],
      "name": "createTask",
      "outputs": [],
      "stateMutability": "nonpayable",
      "type": "function"
    },
    {
      "inputs": [
        {
          "internalType": "address",
          "name": "_user",
          "type": "address"
        }
      ],
      "name": "getAllTasks",
      "outputs": [
        {
          "components": [
            {
              "internalType": "string",
              "name": "description",
              "type": "string"
            },
            {
              "internalType": "enum TaskContract.TaskStatus",
              "name": "status",
              "type": "uint8"
            },
            {
              "internalType": "address",
              "name": "creator",
              "type": "address"
            }
          ],
          "internalType": "struct TaskContract.Task[]",
          "name": "",
          "type": "tuple[]"
        }
      ],
      "stateMutability": "view",
      "type": "function"
    },
    {
      "inputs": [
        {
          "internalType": "address",
          "name": "_user",
          "type": "address"
        }
      ],
      "name": "getCompletedTasks",
      "outputs": [
        {
          "components": [
            {
              "internalType": "string",
              "name": "description",
              "type": "string"
            },
            {
              "internalType": "enum TaskContract.TaskStatus",
              "name": "status",
              "type": "uint8"
            },
            {
              "internalType": "address",
              "name": "creator",
              "type": "address"
            }
          ],
          "internalType": "struct TaskContract.Task[]",
          "name": "",
          "type": "tuple[]"
        }
      ],
      "stateMutability": "view",
      "type": "function"
    },
    {
      "inputs": [
        {
          "internalType": "address",
          "name": "_user",
          "type": "address"
        }
      ],
      "name": "getPendingTasks",
      "outputs": [
        {
          "components": [
            {
              "internalType": "string",
              "name": "description",
              "type": "string"
            },
            {
              "internalType": "enum TaskContract.TaskStatus",
              "name": "status",
              "type": "uint8"
            },
            {
              "internalType": "address",
              "name": "creator",
              "type": "address"
            }
          ],
          "internalType": "struct TaskContract.Task[]",
          "name": "",
          "type": "tuple[]"
        }
      ],
      "stateMutability": "view",
      "type": "function"
    },
    {
      "inputs": [
        {
          "internalType": "uint256",
          "name": "_taskIndex",
          "type": "uint256"
        },
        {
          "internalType": "enum TaskContract.TaskStatus",
          "name": "_status",
          "type": "uint8"
        }
      ],
      "name": "updateTask",
      "outputs": [],
      "stateMutability": "nonpayable",
      "type": "function"
    }
  ],
  "bytecode": "0x6080604052348015600f57600080fd5b506115688061001f6000396000f3fe608060405234801561001057600080fd5b50600436106100575760003560e01c8063362bb01a1461005c5780638ebe2e701461008c578063983c00de146100a8578063ddaf0762146100d8578063f1209f8a146100f4575b600080fd5b61007660048036038101906100719190610b3d565b610124565b6040516100839190610d92565b60405180910390f35b6100a660048036038101906100a19190610ee9565b610138565b005b6100c260048036038101906100bd9190610b3d565b6102c6565b6040516100cf9190610d92565b60405180910390f35b6100f260048036038101906100ed9190610fa0565b6102da565b005b61010e60048036038101906101099190610b3d565b6104ac565b60405161011b9190610d92565b60405180910390f35b606061013182600061066c565b9050919050565b6000808373ffffffffffffffffffffffffffffffffffffffff1673ffffffffffffffffffffffffffffffffffffffff16815260200190815260200160002060405180606001604052808381526020016000600181111561019b5761019a610c26565b5b81526020013373ffffffffffffffffffffffffffffffffffffffff16815250908060018154018082558091505060019003906000526020600020906002020160009091909190915060008201518160000190816101f891906111ec565b5060208201518160010160006101000a81548160ff0219169083600181111561022457610223610c26565b5b021790555060408201518160010160016101000a81548173ffffffffffffffffffffffffffffffffffffffff021916908373ffffffffffffffffffffffffffffffffffffffff16021790555050508173ffffffffffffffffffffffffffffffffffffffff167fb03e0fb68eda0754f73d13a7c95af031ff496480554eb9edc1c77bc50cfc8a1082336040516102ba929190611317565b60405180910390a25050565b60606102d382600161066c565b9050919050565b33828173ffffffffffffffffffffffffffffffffffffffff163373ffffffffffffffffffffffffffffffffffffffff161461034a576040517f08c379a0000000000000000000000000000000000000000000000000000000008152600401610341906113b9565b60405180910390fd5b6000808373ffffffffffffffffffffffffffffffffffffffff1673ffffffffffffffffffffffffffffffffffffffff1681526020019081526020016000208054905081106103cd576040517f08c379a00000000000000000000000000000000000000000000000000000000081526004016103c490611425565b60405180910390fd5b826000803373ffffffffffffffffffffffffffffffffffffffff1673ffffffffffffffffffffffffffffffffffffffff168152602001908152602001600020858154811061041e5761041d611445565b5b906000526020600020906002020160010160006101000a81548160ff0219169083600181111561045157610450610c26565b5b02179055503373ffffffffffffffffffffffffffffffffffffffff167fafac60f4f5bb8f98118b0e4f9591958a54d7ae15570880e0e68f4552230d3640858560405161049e929190611492565b60405180910390a250505050565b60606000808373ffffffffffffffffffffffffffffffffffffffff1673ffffffffffffffffffffffffffffffffffffffff168152602001908152602001600020805480602002602001604051908101604052809291908181526020016000905b82821015610661578382906000526020600020906002020160405180606001604052908160008201805461053f9061100f565b80601f016020809104026020016040519081016040528092919081815260200182805461056b9061100f565b80156105b85780601f1061058d576101008083540402835291602001916105b8565b820191906000526020600020905b81548152906001019060200180831161059b57829003601f168201915b505050505081526020016001820160009054906101000a900460ff1660018111156105e6576105e5610c26565b5b60018111156105f8576105f7610c26565b5b81526020016001820160019054906101000a900473ffffffffffffffffffffffffffffffffffffffff1673ffffffffffffffffffffffffffffffffffffffff1673ffffffffffffffffffffffffffffffffffffffff16815250508152602001906001019061050c565b505050509050919050565b60606000805b6000808673ffffffffffffffffffffffffffffffffffffffff1673ffffffffffffffffffffffffffffffffffffffff16815260200190815260200160002080549050811015610770578360018111156106ce576106cd610c26565b5b6000808773ffffffffffffffffffffffffffffffffffffffff1673ffffffffffffffffffffffffffffffffffffffff168152602001908152602001600020828154811061071e5761071d611445565b5b906000526020600020906002020160010160009054906101000a900460ff16600181111561074f5761074e610c26565b5b0361076357818061075f906114ea565b9250505b8080600101915050610672565b5060008167ffffffffffffffff81111561078d5761078c610dbe565b5b6040519080825280602002602001820160405280156107c657816020015b6107b3610a82565b8152602001906001900390816107ab5790505b5090506000805b6000808873ffffffffffffffffffffffffffffffffffffffff1673ffffffffffffffffffffffffffffffffffffffff16815260200190815260200160002080549050811015610a755785600181111561082957610828610c26565b5b6000808973ffffffffffffffffffffffffffffffffffffffff1673ffffffffffffffffffffffffffffffffffffffff168152602001908152602001600020828154811061087957610878611445565b5b906000526020600020906002020160010160009054906101000a900460ff1660018111156108aa576108a9610c26565b5b03610a68576000808873ffffffffffffffffffffffffffffffffffffffff1673ffffffffffffffffffffffffffffffffffffffff16815260200190815260200160002081815481106108ff576108fe611445565b5b90600052602060002090600202016040518060600160405290816000820180546109289061100f565b80601f01602080910402602001604051908101604052809291908181526020018280546109549061100f565b80156109a15780601f10610976576101008083540402835291602001916109a1565b820191906000526020600020905b81548152906001019060200180831161098457829003601f168201915b505050505081526020016001820160009054906101000a900460ff1660018111156109cf576109ce610c26565b5b60018111156109e1576109e0610c26565b5b81526020016001820160019054906101000a900473ffffffffffffffffffffffffffffffffffffffff1673ffffffffffffffffffffffffffffffffffffffff1673ffffffffffffffffffffffffffffffffffffffff1681525050838381518110610a4e57610a4d611445565b5b60200260200101819052508180610a64906114ea565b9250505b80806001019150506107cd565b5081935050505092915050565b60405180606001604052806060815260200160006001811115610aa857610aa7610c26565b5b8152602001600073ffffffffffffffffffffffffffffffffffffffff1681525090565b6000604051905090565b600080fd5b600080fd5b600073ffffffffffffffffffffffffffffffffffffffff82169050919050565b6000610b0a82610adf565b9050919050565b610b1a81610aff565b8114610b2557600080fd5b50565b600081359050610b3781610b11565b92915050565b600060208284031215610b5357610b52610ad5565b5b6000610b6184828501610b28565b91505092915050565b600081519050919050565b600082825260208201905092915050565b6000819050602082019050919050565b600081519050919050565b600082825260208201905092915050565b60005b83811015610bd0578082015181840152602081019050610bb5565b60008484015250505050565b6000601f19601f8301169050919050565b6000610bf882610b96565b610c028185610ba1565b9350610c12818560208601610bb2565b610c1b81610bdc565b840191505092915050565b7f4e487b7100000000000000000000000000000000000000000000000000000000600052602160045260246000fd5b60028110610c6657610c65610c26565b5b50565b6000819050610c7782610c55565b919050565b6000610c8782610c69565b9050919050565b610c9781610c7c565b82525050565b610ca681610aff565b82525050565b60006060830160008301518482036000860152610cc98282610bed565b9150506020830151610cde6020860182610c8e565b506040830151610cf16040860182610c9d565b508091505092915050565b6000610d088383610cac565b905092915050565b6000602082019050919050565b6000610d2882610b6a565b610d328185610b75565b935083602082028501610d4485610b86565b8060005b85811015610d805784840389528151610d618582610cfc565b9450610d6c83610d10565b925060208a01995050600181019050610d48565b50829750879550505050505092915050565b60006020820190508181036000830152610dac8184610d1d565b905092915050565b600080fd5b600080fd5b7f4e487b7100000000000000000000000000000000000000000000000000000000600052604160045260246000fd5b610df682610bdc565b810181811067ffffffffffffffff82111715610e1557610e14610dbe565b5b80604052505050565b6000610e28610acb565b9050610e348282610ded565b919050565b600067ffffffffffffffff821115610e5457610e53610dbe565b5b610e5d82610bdc565b9050602081019050919050565b82818337600083830152505050565b6000610e8c610e8784610e39565b610e1e565b905082815260208101848484011115610ea857610ea7610db9565b5b610eb3848285610e6a565b509392505050565b600082601f830112610ed057610ecf610db4565b5b8135610ee0848260208601610e79565b91505092915050565b60008060408385031215610f0057610eff610ad5565b5b6000610f0e85828601610b28565b925050602083013567ffffffffffffffff811115610f2f57610f2e610ada565b5b610f3b85828601610ebb565b9150509250929050565b6000819050919050565b610f5881610f45565b8114610f6357600080fd5b50565b600081359050610f7581610f4f565b92915050565b60028110610f8857600080fd5b50565b600081359050610f9a81610f7b565b92915050565b60008060408385031215610fb757610fb6610ad5565b5b6000610fc585828601610f66565b9250506020610fd685828601610f8b565b9150509250929050565b7f4e487b7100000000000000000000000000000000000000000000000000000000600052602260045260246000fd5b6000600282049050600182168061102757607f821691505b60208210810361103a57611039610fe0565b5b50919050565b60008190508160005260206000209050919050565b60006020601f8301049050919050565b600082821b905092915050565b6000600883026110a27fffffffffffffffffffffffffffffffffffffffffffffffffffffffffffffffff82611065565b6110ac8683611065565b95508019841693508086168417925050509392505050565b6000819050919050565b60006110e96110e46110df84610f45565b6110c4565b610f45565b9050919050565b6000819050919050565b611103836110ce565b61111761110f826110f0565b848454611072565b825550505050565b600090565b61112c61111f565b6111378184846110fa565b505050565b5b8181101561115b57611150600082611124565b60018101905061113d565b5050565b601f8211156111a05761117181611040565b61117a84611055565b81016020851015611189578190505b61119d61119585611055565b83018261113c565b50505b505050565b600082821c905092915050565b60006111c3600019846008026111a5565b1980831691505092915050565b60006111dc83836111b2565b9150826002028217905092915050565b6111f582610b96565b67ffffffffffffffff81111561120e5761120d610dbe565b5b611218825461100f565b61122382828561115f565b600060209050601f8311600181146112565760008415611244578287015190505b61124e85826111d0565b8655506112b6565b601f19841661126486611040565b60005b8281101561128c57848901518255600182019150602085019450602081019050611267565b868310156112a957848901516112a5601f8916826111b2565b8355505b6001600288020188555050505b505050505050565b600082825260208201905092915050565b60006112da82610b96565b6112e481856112be565b93506112f4818560208601610bb2565b6112fd81610bdc565b840191505092915050565b61131181610aff565b82525050565b6000604082019050818103600083015261133181856112cf565b90506113406020830184611308565b9392505050565b7f596f752063616e206f6e6c792075706461746520796f7572206f776e2074617360008201527f6b73000000000000000000000000000000000000000000000000000000000000602082015250565b60006113a36022836112be565b91506113ae82611347565b604082019050919050565b600060208201905081810360008301526113d281611396565b9050919050565b7f496e76616c6964207461736b20696e6465780000000000000000000000000000600082015250565b600061140f6012836112be565b915061141a826113d9565b602082019050919050565b6000602082019050818103600083015261143e81611402565b9050919050565b7f4e487b7100000000000000000000000000000000000000000000000000000000600052603260045260246000fd5b61147d81610f45565b82525050565b61148c81610c7c565b82525050565b60006040820190506114a76000830185611474565b6114b46020830184611483565b9392505050565b7f4e487b7100000000000000000000000000000000000000000000000000000000600052601160045260246000fd5b60006114f582610f45565b91507fffffffffffffffffffffffffffffffffffffffffffffffffffffffffffffffff8203611527576115266114bb565b5b60018201905091905056fea2646970667358221220cb96a65a159dbbea4dc58d07b28d4cf1c955ef4647a5aa684cf0860590894c4464736f6c634300081c0033",
  "linkReferences": {},
  "deployedLinkReferences": {}
}